{
    "contractName": "Zap",
    "abi": [
        {
            "inputs": [
                {
                    "internalType": "address",
                    "name": "_curve",
                    "type": "address"
                },
                {
                    "internalType": "address",
                    "name": "_base",
                    "type": "address"
                }
            ],
            "name": "calc",
            "outputs": [
                {
                    "internalType": "uint256",
                    "name": "",
                    "type": "uint256"
                },
                {
                    "internalType": "uint256",
                    "name": "",
                    "type": "uint256"
                },
                {
                    "internalType": "uint256",
                    "name": "",
                    "type": "uint256"
                }
            ],
            "stateMutability": "view",
            "type": "function"
        },
        {
            "inputs": [
                {
                    "internalType": "address",
                    "name": "_curve",
                    "type": "address"
                },
                {
                    "internalType": "uint256",
                    "name": "_quoteAmount",
                    "type": "uint256"
                }
            ],
            "name": "calcMaxBaseForDeposit",
            "outputs": [
                {
                    "internalType": "uint256",
                    "name": "",
                    "type": "uint256"
                }
            ],
            "stateMutability": "view",
            "type": "function"
        },
        {
            "inputs": [
                {
                    "internalType": "address",
                    "name": "_curve",
                    "type": "address"
                },
                {
                    "internalType": "uint256",
                    "name": "_baseAmount",
                    "type": "uint256"
                },
                {
                    "internalType": "uint256",
                    "name": "_quoteAmount",
                    "type": "uint256"
                }
            ],
            "name": "calcMaxDepositAmount",
            "outputs": [
                {
                    "internalType": "uint256",
                    "name": "",
                    "type": "uint256"
                },
                {
                    "internalType": "uint256",
                    "name": "",
                    "type": "uint256"
                },
                {
                    "internalType": "uint256[]",
                    "name": "",
                    "type": "uint256[]"
                }
            ],
            "stateMutability": "view",
            "type": "function"
        },
        {
            "inputs": [
                {
                    "internalType": "address",
                    "name": "_curve",
                    "type": "address"
                },
                {
                    "internalType": "uint256",
                    "name": "_baseAmount",
                    "type": "uint256"
                }
            ],
            "name": "calcMaxQuoteForDeposit",
            "outputs": [
                {
                    "internalType": "uint256",
                    "name": "",
                    "type": "uint256"
                }
            ],
            "stateMutability": "view",
            "type": "function"
        },
        {
            "inputs": [
                {
                    "internalType": "address",
                    "name": "_curve",
                    "type": "address"
                },
                {
                    "internalType": "uint256",
                    "name": "_zapAmount",
                    "type": "uint256"
                },
                {
                    "internalType": "bool",
                    "name": "isFromBase",
                    "type": "bool"
                }
            ],
            "name": "calcSwapAmountForZap",
            "outputs": [
                {
                    "internalType": "address",
                    "name": "",
                    "type": "address"
                },
                {
                    "internalType": "uint256",
                    "name": "",
                    "type": "uint256"
                }
            ],
            "stateMutability": "view",
            "type": "function"
        },
        {
            "inputs": [
                {
                    "internalType": "address",
                    "name": "_curve",
                    "type": "address"
                },
                {
                    "internalType": "uint256",
                    "name": "_zapAmount",
                    "type": "uint256"
                }
            ],
            "name": "calcSwapAmountForZapFromBase",
            "outputs": [
                {
                    "internalType": "uint256",
                    "name": "",
                    "type": "uint256"
                }
            ],
            "stateMutability": "view",
            "type": "function"
        },
        {
            "inputs": [
                {
                    "internalType": "address",
                    "name": "_curve",
                    "type": "address"
                },
                {
                    "internalType": "uint256",
                    "name": "_zapAmount",
                    "type": "uint256"
                }
            ],
            "name": "calcSwapAmountForZapFromQuote",
            "outputs": [
                {
                    "internalType": "uint256",
                    "name": "",
                    "type": "uint256"
                }
            ],
            "stateMutability": "view",
            "type": "function"
        },
        {
            "inputs": [
                {
                    "internalType": "address",
                    "name": "_curve",
                    "type": "address"
                },
                {
                    "internalType": "uint256",
                    "name": "_deadline",
                    "type": "uint256"
                }
            ],
            "name": "deposit2",
            "outputs": [
                {
                    "internalType": "uint256",
                    "name": "",
                    "type": "uint256"
                }
            ],
            "stateMutability": "nonpayable",
            "type": "function"
        },
        {
            "inputs": [
                {
                    "internalType": "address",
                    "name": "_curve",
                    "type": "address"
                },
                {
                    "internalType": "uint256",
                    "name": "_zapAmount",
                    "type": "uint256"
                },
                {
                    "internalType": "uint256",
                    "name": "_deadline",
                    "type": "uint256"
                },
                {
                    "internalType": "uint256",
                    "name": "_minLPAmount",
                    "type": "uint256"
                },
                {
                    "internalType": "bool",
                    "name": "isFromBase",
                    "type": "bool"
                }
            ],
            "name": "zap",
            "outputs": [
                {
                    "internalType": "uint256",
                    "name": "",
                    "type": "uint256"
                }
            ],
            "stateMutability": "nonpayable",
            "type": "function"
        },
        {
            "inputs": [
                {
                    "internalType": "address",
                    "name": "_curve",
                    "type": "address"
                },
                {
                    "internalType": "uint256",
                    "name": "_zapAmount",
                    "type": "uint256"
                },
                {
                    "internalType": "uint256",
                    "name": "_deadline",
                    "type": "uint256"
                },
                {
                    "internalType": "uint256",
                    "name": "_minLPAmount",
                    "type": "uint256"
                }
            ],
            "name": "zapFromBase",
            "outputs": [
                {
                    "internalType": "uint256",
                    "name": "",
                    "type": "uint256"
                }
            ],
            "stateMutability": "nonpayable",
            "type": "function"
        },
        {
            "inputs": [
                {
                    "internalType": "address",
                    "name": "_curve",
                    "type": "address"
                },
                {
                    "internalType": "uint256",
                    "name": "_zapAmount",
                    "type": "uint256"
                },
                {
                    "internalType": "uint256",
                    "name": "_deadline",
                    "type": "uint256"
                },
                {
                    "internalType": "uint256",
                    "name": "_minLPAmount",
                    "type": "uint256"
                }
            ],
            "name": "zapFromQuote",
            "outputs": [
                {
                    "internalType": "uint256",
                    "name": "",
                    "type": "uint256"
                }
            ],
            "stateMutability": "nonpayable",
            "type": "function"
        }
    ],
    "bytecode": "608060405234801561001057600080fd5b50612925806100206000396000f3fe608060405234801561001057600080fd5b50600436106100a95760003560e01c806372fe67891161007157806372fe6789146101325780638436f16a14610145578063ab28d77814610158578063b50b506a14610179578063bc493e3f1461018c578063cfe5a9ed146101ae576100a9565b806334ab2ccf146100ae57806346275e89146100d757806354604fcf146100ea578063598fab151461010c57806363ee81b11461011f575b600080fd5b6100c16100bc3660046122f0565b6101c1565b6040516100ce91906125d9565b60405180910390f35b6100c16100e53660046122f0565b610254565b6100fd6100f836600461235c565b610322565b6040516100ce939291906127ef565b6100c161011a3660046122f0565b610360565b6100c161012d3660046122f0565b610542565b6100c1610140366004612390565b610551565b6100c1610153366004612390565b610561565b61016b61016636600461231b565b610571565b6040516100ce929190612551565b6100c16101873660046123ca565b6108a9565b61019f61019a3660046122b8565b610e9b565b6040516100ce93929190612843565b6100c16101bc3660046122f0565b610eb8565b600080836001600160a01b031663e2bbb1586000856040518363ffffffff1660e01b81526004016101f39291906125e2565b600060405180830381600087803b15801561020d57600080fd5b505af1158015610221573d6000803e3d6000fd5b505050506040513d6000823e601f3d908101601f191682016040526102499190810190612453565b509150505b92915050565b60006060836001600160a01b0316636f2ef95b671bc16d674ec800006040518263ffffffff1660e01b815260040161028c91906125d9565b60006040518083038186803b1580156102a457600080fd5b505afa1580156102b8573d6000803e3d6000fd5b505050506040513d6000823e601f3d908101601f191682016040526102e09190810190612453565b9150506000610319620f424061031386856000815181106102fd57fe5b6020026020010151610ec790919063ffffffff16565b90610f08565b95945050505050565b600080606061035186604051806080016040528088815260200187815260200188815260200187815250610f4a565b92509250925093509350939050565b600080836001600160a01b0316638334278d60006040518263ffffffff1660e01b815260040161039091906125d9565b60206040518083038186803b1580156103a857600080fd5b505afa1580156103bc573d6000803e3d6000fd5b505050506040513d601f19601f820116820180604052508101906103e0919061229c565b6001600160a01b031663313ce5676040518163ffffffff1660e01b815260040160206040518083038186803b15801561041857600080fd5b505afa15801561042c573d6000803e3d6000fd5b505050506040513d601f19601f820116820180604052508101906104509190612500565b90506060846001600160a01b0316636f2ef95b671bc16d674ec800006040518263ffffffff1660e01b815260040161048891906125d9565b60006040518083038186803b1580156104a057600080fd5b505afa1580156104b4573d6000803e3d6000fd5b505050506040513d6000823e601f3d908101601f191682016040526104dc9190810190612453565b91505060006105146104fa64e8d4a51000846001815181106102fd57fe5b6103138560240360ff16600a0a856000815181106102fd57fe5b9050600061053764e8d4a5100061031384818a60ff60248b900316600a0a610ec7565b979650505050505050565b60008061031984846000610571565b60006103198585858560016108a9565b60006103198585858560006108a9565b6000806000856001600160a01b0316638334278d60006040518263ffffffff1660e01b81526004016105a391906125d9565b60206040518083038186803b1580156105bb57600080fd5b505afa1580156105cf573d6000803e3d6000fd5b505050506040513d601f19601f820116820180604052508101906105f3919061229c565b90506000816001600160a01b03166370a08231886040518263ffffffff1660e01b8152600401610623919061253d565b60206040518083038186803b15801561063b57600080fd5b505afa15801561064f573d6000803e3d6000fd5b505050506040513d601f19601f82011682018060405250810190610673919061243b565b90506000826001600160a01b031663313ce5676040518163ffffffff1660e01b815260040160206040518083038186803b1580156106b057600080fd5b505afa1580156106c4573d6000803e3d6000fd5b505050506040513d601f19601f820116820180604052508101906106e89190612500565b6040516370a0823160e01b81529091506000906000805160206128d0833981519152906370a082319061071f908c9060040161253d565b60206040518083038186803b15801561073757600080fd5b505afa15801561074b573d6000803e3d6000fd5b505050506040513d601f19601f8201168201806040525081019061076f919061243b565b905060006107986107858364e8d4a51000610ec7565b6103138660ff8716602403600a0a610ec7565b905060006107e7670de0b6b3a76400008311156107ca576107c5836103138d670de0b6b3a7640000610ec7565b6107e0565b6107e0670de0b6b3a76400006103138d86610ec7565b8b90611207565b9050881561084a578561083b826040518060c001604052808f6001600160a01b031681526020018a6001600160a01b031681526020018e81526020018981526020018860ff16815260200187815250611249565b975097505050505050506108a1565b85610896826040518060c001604052808f6001600160a01b031681526020018a6001600160a01b031681526020018e81526020018981526020018860ff16815260200187815250611427565b975097505050505050505b935093915050565b60008060006108b9888886610571565b91509150831561099c576108d86001600160a01b03831633308a6115f5565b6108ed6001600160a01b038316896000611653565b6109016001600160a01b0383168983611653565b604051630164b07960e31b81526001600160a01b03891690630b2583c8906109449085906000805160206128d08339815191529086906000908d906004016125a8565b602060405180830381600087803b15801561095e57600080fd5b505af1158015610972573d6000803e3d6000fd5b505050506040513d601f19601f82011682018060405250810190610996919061243b565b50610a80565b6109b66000805160206128d083398151915233308a6115f5565b6109d06000805160206128d0833981519152896000611653565b6109e96000805160206128d08339815191528983611653565b604051630164b07960e31b81526001600160a01b03891690630b2583c890610a2c906000805160206128d083398151915290869086906000908d906004016125a8565b602060405180830381600087803b158015610a4657600080fd5b505af1158015610a5a573d6000803e3d6000fd5b505050506040513d601f19601f82011682018060405250810190610a7e919061243b565b505b6000806000610a8f8b8661171b565b91945092509050610aab6001600160a01b0386168c6000611653565b610abf6001600160a01b0386168c84611653565b610ad96000805160206128d08339815191528c6000611653565b610af26000805160206128d08339815191528c83611653565b604051631c57762b60e31b81526000906001600160a01b038d169063e2bbb15890610b239087908e906004016125e2565b600060405180830381600087803b158015610b3d57600080fd5b505af1158015610b51573d6000803e3d6000fd5b505050506040513d6000823e601f3d908101601f19168201604052610b799190810190612453565b50905088811015610ba55760405162461bcd60e51b8152600401610b9c90612623565b60405180910390fd5b6040516370a0823160e01b81526001600160a01b038d169063a9059cbb90339083906370a0823190610bdb90309060040161253d565b60206040518083038186803b158015610bf357600080fd5b505afa158015610c07573d6000803e3d6000fd5b505050506040513d601f19601f82011682018060405250810190610c2b919061243b565b6040518363ffffffff1660e01b8152600401610c48929190612551565b602060405180830381600087803b158015610c6257600080fd5b505af1158015610c76573d6000803e3d6000fd5b505050506040513d601f19601f82011682018060405250810190610c9a919061241f565b506040516370a0823160e01b81526001600160a01b0387169063a9059cbb90339083906370a0823190610cd190309060040161253d565b60206040518083038186803b158015610ce957600080fd5b505afa158015610cfd573d6000803e3d6000fd5b505050506040513d601f19601f82011682018060405250810190610d21919061243b565b6040518363ffffffff1660e01b8152600401610d3e929190612551565b602060405180830381600087803b158015610d5857600080fd5b505af1158015610d6c573d6000803e3d6000fd5b505050506040513d601f19601f82011682018060405250810190610d90919061241f565b506040516370a0823160e01b81526000805160206128d08339815191529063a9059cbb90339083906370a0823190610dcc90309060040161253d565b60206040518083038186803b158015610de457600080fd5b505afa158015610df8573d6000803e3d6000fd5b505050506040513d601f19601f82011682018060405250810190610e1c919061243b565b6040518363ffffffff1660e01b8152600401610e39929190612551565b602060405180830381600087803b158015610e5357600080fd5b505af1158015610e67573d6000803e3d6000fd5b505050506040513d601f19601f82011682018060405250810190610e8b919061241f565b509b9a5050505050505050505050565b6000806000610eaa858561171b565b9250925092505b9250925092565b60008061031984846001610571565b600082610ed65750600061024e565b82820282848281610ee357fe5b0414610f015760405162461bcd60e51b8152600401610b9c906126d7565b9392505050565b6000610f0183836040518060400160405280601a81526020017f536166654d6174683a206469766973696f6e206279207a65726f000000000000815250611c10565b6000806060610f5761225f565b610f618686611c47565b905084604001518160800151600081518110610f7957fe5b60200260200101511180610fa8575084606001518160800151600181518110610f9e57fe5b6020026020010151115b8015610ff4575084604001518160c00151600081518110610fc557fe5b60200260200101511180610ff4575084606001518160c00151600181518110610fea57fe5b6020026020010151115b156110575761104b86604051806080016040528061101a85600001518a60000151611ea7565b815260200161103185600001518a60200151611ea7565b81526040808a0151602083015260608a0151910152610f4a565b93509350935050610eb1565b8460400151816080015160008151811061106d57fe5b60200260200101511115801561109f57508460600151816080015160018151811061109457fe5b602002602001015111155b80156110eb575084604001518160c001516000815181106110bc57fe5b602002602001015111806110eb575084606001518160c001516001815181106110e157fe5b6020026020010151115b1561110b5780602001518160600151826080015193509350935050610eb1565b84604001518160c0015160008151811061112157fe5b602002602001015111158015611153575084606001518160c0015160018151811061114857fe5b602002602001015111155b801561119f57508460400151816080015160008151811061117057fe5b6020026020010151118061119f57508460600151816080015160018151811061119557fe5b6020026020010151115b156111bf5780604001518160a001518260c0015193509350935050610eb1565b8060a00151816060015111156111ea5780602001518160600151826080015193509350935050610eb1565b80604001518160a001518260c00151935093509350509250925092565b6000610f0183836040518060400160405280601e81526020017f536166654d6174683a207375627472616374696f6e206f766572666c6f770000815250611eec565b60008281611258826002610f08565b905060008080805b602081101561141a57875160208901516040516341c7351160e11b81526001600160a01b039092169163838e6a22916112ad916000805160206128d0833981519152908b90600401612584565b60206040518083038186803b1580156112c557600080fd5b505afa1580156112d9573d6000803e3d6000fd5b505050506040513d601f19601f820116820180604052508101906112fd919061243b565b935061133f6113118564e8d4a51000610ec7565b6103138a6080015160ff16602403600a0a6113398a8d6040015161120790919063ffffffff16565b90610ec7565b915061138c61136464e8d4a51000611339878c60a0015161120790919063ffffffff16565b6103138a6080015160ff16602403600a0a6113398a8d60600151611f1890919063ffffffff16565b925061139d8364e8d4a51000610f08565b6113ac8364e8d4a51000610f08565b14156113c05785965050505050505061024e565b828211156113d9576113d28686611f18565b95506113ee565b828210156113ee576113eb8686611207565b95505b876040015186111561140557600188604001510395505b611410856002610f08565b9450600101611260565b5093979650505050505050565b60008281611436826002610f08565b905060008080805b602081101561141a57875160208901516040516341c7351160e11b81526001600160a01b039092169163838e6a229161148c916000805160206128d083398151915291908b90600401612584565b60206040518083038186803b1580156114a457600080fd5b505afa1580156114b8573d6000803e3d6000fd5b505050506040513d601f19601f820116820180604052508101906114dc919061243b565b935061151a61150164e8d4a51000611339898c6040015161120790919063ffffffff16565b60808a015161031390879060ff16602403600a0a610ec7565b915061156761153f64e8d4a51000611339898c60a00151611f1890919063ffffffff16565b6103138a6080015160ff16602403600a0a611339888d6060015161120790919063ffffffff16565b92506115788364e8d4a51000610f08565b6115878364e8d4a51000610f08565b141561159b5785965050505050505061024e565b828211156115b4576115ad8686611207565b95506115c9565b828210156115c9576115c68686611f18565b95505b87604001518611156115e057600188604001510395505b6115eb856002610f08565b945060010161143e565b61164d846323b872dd60e01b85858560405160240161161693929190612584565b60408051601f198184030181529190526020810180516001600160e01b03166001600160e01b031990931692909217909152611f3d565b50505050565b8015806116db5750604051636eb1769f60e11b81526001600160a01b0384169063dd62ed3e90611689903090869060040161256a565b60206040518083038186803b1580156116a157600080fd5b505afa1580156116b5573d6000803e3d6000fd5b505050506040513d601f19601f820116820180604052508101906116d9919061243b565b155b6116f75760405162461bcd60e51b8152600401610b9c90612799565b6117168363095ea7b360e01b8484604051602401611616929190612551565b505050565b600080600080846001600160a01b031663313ce5676040518163ffffffff1660e01b815260040160206040518083038186803b15801561175a57600080fd5b505afa15801561176e573d6000803e3d6000fd5b505050506040513d601f19601f820116820180604052508101906117929190612500565b9050600061186561182c64e8d4a510006000805160206128d08339815191526001600160a01b03166370a082318b6040518263ffffffff1660e01b81526004016117dc919061253d565b60206040518083038186803b1580156117f457600080fd5b505afa158015611808573d6000803e3d6000fd5b505050506040513d601f19601f82011682018060405250810190611339919061243b565b6103138460ff16602403600a0a896001600160a01b03166370a082318c6040518263ffffffff1660e01b81526004016117dc919061253d565b6040516370a0823160e01b81529091506000906000805160206128d0833981519152906370a082319061189c90309060040161253d565b60206040518083038186803b1580156118b457600080fd5b505afa1580156118c8573d6000803e3d6000fd5b505050506040513d601f19601f820116820180604052508101906118ec919061243b565b905060006118ff8264e8d4a51000610ec7565b90506000886001600160a01b03166370a08231306040518263ffffffff1660e01b815260040161192f919061253d565b60206040518083038186803b15801561194757600080fd5b505afa15801561195b573d6000803e3d6000fd5b505050506040513d601f19601f8201168201806040525081019061197f919061243b565b905060006119968260ff8816601203600a0a610ec7565b905060006119ba6119b38761031385670de0b6b3a7640000610ec7565b8590611f18565b90508660ff16600214156119db576119d86064610313836062610ec7565b90505b604051636f2ef95b60e01b81526060906001600160a01b038e1690636f2ef95b90611a1290670de0b6b3a7640000906004016125d9565b60006040518083038186803b158015611a2a57600080fd5b505afa158015611a3e573d6000803e3d6000fd5b505050506040513d6000823e601f3d908101601f19168201604052611a669190810190612453565b604051636f2ef95b60e01b81529092506001600160a01b038f169150636f2ef95b90611a969085906004016125d9565b60006040518083038186803b158015611aae57600080fd5b505afa158015611ac2573d6000803e3d6000fd5b505050506040513d6000823e601f3d908101601f19168201604052611aea9190810190612453565b90508091505060008482600081518110611b0057fe5b602002602001015111611b14576000611b3b565b611b3b8583600081518110611b2557fe5b602002602001015161120790919063ffffffff16565b905060008783600181518110611b4d57fe5b602002602001015111611b61576000611b72565b611b728884600181518110611b2557fe5b905060008215611bb357611b90876103138560ff8f16600a0a610ec7565b9050611bb0611ba960ff8d16600a0a6103138885610ec7565b8690611207565b94505b8115611be357611bca8961031384620f4240610ec7565b9050611be0611ba9620f42406103138885610ec7565b94505b611bf8662386f26fc100006113398782610f08565b9d50959b509699505050505050505050509250925092565b60008183611c315760405162461bcd60e51b8152600401610b9c91906125f0565b506000838581611c3d57fe5b0495945050505050565b611c4f61225f565b6000611c5f848460200151610254565b90506000611c71858560000151610360565b9050600080611c7f87611fcc565b9150915060008060006060600060606000611cac64e8d4a510008e60200151610ec790919063ffffffff16565b90506000611cc48c60ff60128d900316600a0a610ec7565b9050611ce6611cdf8a61031384670de0b6b3a7640000610ec7565b8390611f18565b9750611cfc620186a06103138a6201869f610ec7565b97508e6001600160a01b0316636f2ef95b896040518263ffffffff1660e01b8152600401611d2a91906125d9565b60006040518083038186803b158015611d4257600080fd5b505afa158015611d56573d6000803e3d6000fd5b505050506040513d6000823e601f3d908101601f19168201604052611d7e9190810190612453565b9096509450611d9a662386f26fc100006113398d612710610f08565b8e51909250611db39060ff60128d900316600a0a610ec7565b9050611dce611cdf8a61031384670de0b6b3a7640000610ec7565b9650611de4620186a0610313896201869f610ec7565b96508e6001600160a01b0316636f2ef95b886040518263ffffffff1660e01b8152600401611e1291906125d9565b60006040518083038186803b158015611e2a57600080fd5b505afa158015611e3e573d6000803e3d6000fd5b505050506040513d6000823e601f3d908101601f19168201604052611e669190810190612453565b6040805160e0810182529b8c5260208c019a909a52988a0197909752505050506060850191909152608084015260a083015260c08201529695505050505050565b6000670de0b6b3a7640000831115611ed657611ecf8361031384670de0b6b3a7640000610ec7565b905061024e565b610f01670de0b6b3a76400006103138486610ec7565b60008184841115611f105760405162461bcd60e51b8152600401610b9c91906125f0565b505050900390565b600082820183811015610f015760405162461bcd60e51b8152600401610b9c9061265a565b6060611f92826040518060400160405280602081526020017f5361666545524332303a206c6f772d6c6576656c2063616c6c206661696c6564815250856001600160a01b03166121539092919063ffffffff16565b8051909150156117165780806020019051810190611fb0919061241f565b6117165760405162461bcd60e51b8152600401610b9c9061274f565b6000806000836001600160a01b0316638334278d60006040518263ffffffff1660e01b8152600401611ffe91906125d9565b60206040518083038186803b15801561201657600080fd5b505afa15801561202a573d6000803e3d6000fd5b505050506040513d601f19601f8201168201806040525081019061204e919061229c565b90506000816001600160a01b031663313ce5676040518163ffffffff1660e01b815260040160206040518083038186803b15801561208b57600080fd5b505afa15801561209f573d6000803e3d6000fd5b505050506040513d601f19601f820116820180604052508101906120c39190612500565b9050600061214661210d64e8d4a510006000805160206128d08339815191526001600160a01b03166370a082318a6040518263ffffffff1660e01b81526004016117dc919061253d565b6103138460ff16602403600a0a866001600160a01b03166370a082318b6040518263ffffffff1660e01b81526004016117dc919061253d565b9194509092505050915091565b6060612162848460008561216a565b949350505050565b60608247101561218c5760405162461bcd60e51b8152600401610b9c90612691565b61219585612220565b6121b15760405162461bcd60e51b8152600401610b9c90612718565b60006060866001600160a01b031685876040516121ce9190612521565b60006040518083038185875af1925050503d806000811461220b576040519150601f19603f3d011682016040523d82523d6000602084013e612210565b606091505b5091509150610537828286612226565b3b151590565b60608315612235575081610f01565b8251156122455782518084602001fd5b8160405162461bcd60e51b8152600401610b9c91906125f0565b6040518060e00160405280600081526020016000815260200160008152602001600081526020016060815260200160008152602001606081525090565b6000602082840312156122ad578081fd5b8151610f01816128a9565b600080604083850312156122ca578081fd5b82356122d5816128a9565b915060208301356122e5816128a9565b809150509250929050565b60008060408385031215612302578182fd5b823561230d816128a9565b946020939093013593505050565b60008060006060848603121561232f578081fd5b833561233a816128a9565b9250602084013591506040840135612351816128c1565b809150509250925092565b600080600060608486031215612370578283fd5b833561237b816128a9565b95602085013595506040909401359392505050565b600080600080608085870312156123a5578081fd5b84356123b0816128a9565b966020860135965060408601359560600135945092505050565b600080600080600060a086880312156123e1578081fd5b85356123ec816128a9565b94506020860135935060408601359250606086013591506080860135612411816128c1565b809150509295509295909350565b600060208284031215612430578081fd5b8151610f01816128c1565b60006020828403121561244c578081fd5b5051919050565b60008060408385031215612465578182fd5b8251915060208084015167ffffffffffffffff80821115612484578384fd5b818601915086601f830112612497578384fd5b8151818111156124a357fe5b83810291506124b3848301612859565b8181528481019084860184860187018b10156124cd578788fd5b8795505b838610156124ef5780518352600195909501949186019186016124d1565b508096505050505050509250929050565b600060208284031215612511578081fd5b815160ff81168114610f01578182fd5b6000825161253381846020870161287d565b9190910192915050565b6001600160a01b0391909116815260200190565b6001600160a01b03929092168252602082015260400190565b6001600160a01b0392831681529116602082015260400190565b6001600160a01b039384168152919092166020820152604081019190915260600190565b6001600160a01b03958616815293909416602084015260408301919091526060820152608081019190915260a00190565b90815260200190565b918252602082015260400190565b600060208252825180602084015261260f81604085016020870161287d565b601f01601f19169190910160400192915050565b60208082526019908201527f215a61702f6e6f742d656e6f7567682d6c702d616d6f756e7400000000000000604082015260600190565b6020808252601b908201527f536166654d6174683a206164646974696f6e206f766572666c6f770000000000604082015260600190565b60208082526026908201527f416464726573733a20696e73756666696369656e742062616c616e636520666f6040820152651c8818d85b1b60d21b606082015260800190565b60208082526021908201527f536166654d6174683a206d756c7469706c69636174696f6e206f766572666c6f6040820152607760f81b606082015260800190565b6020808252601d908201527f416464726573733a2063616c6c20746f206e6f6e2d636f6e7472616374000000604082015260600190565b6020808252602a908201527f5361666545524332303a204552433230206f7065726174696f6e20646964206e6040820152691bdd081cdd58d8d9595960b21b606082015260800190565b60208082526036908201527f5361666545524332303a20617070726f76652066726f6d206e6f6e2d7a65726f60408201527520746f206e6f6e2d7a65726f20616c6c6f77616e636560501b606082015260800190565b60006060820185835260208581850152606060408501528185518084526080860191508287019350845b8181101561283557845183529383019391830191600101612819565b509098975050505050505050565b9283526020830191909152604082015260600190565b60405181810167ffffffffffffffff8111828210171561287557fe5b604052919050565b60005b83811015612898578181015183820152602001612880565b8381111561164d5750506000910152565b6001600160a01b03811681146128be57600080fd5b50565b80151581146128be57600080fdfe000000000000000000000000a0b86991c6218b36c1d19d4a2e9eb0ce3606eb48a2646970667358221220066828a566c3eae72b9f93421a23f542af20ed6558377e7cc7e04b2355c19b9764736f6c63430007030033",
    "sourcePath": "/home/lucascullen/GitHub/HaloDAO/dfx-protocol-clone/contracts/Zap.sol",
    "compiler": {
        "name": "solc",
        "version": "0.7.3+commit.9bfce1f6"
    },
    "functionHashes": {
        "calc(address,address)": "bc493e3f",
        "calcMaxBaseForDeposit(address,uint256)": "46275e89",
        "calcMaxDepositAmount(address,uint256,uint256)": "54604fcf",
        "calcMaxQuoteForDeposit(address,uint256)": "598fab15",
        "calcSwapAmountForZap(address,uint256,bool)": "ab28d778",
        "calcSwapAmountForZapFromBase(address,uint256)": "cfe5a9ed",
        "calcSwapAmountForZapFromQuote(address,uint256)": "63ee81b1",
        "deposit2(address,uint256)": "34ab2ccf",
        "zap(address,uint256,uint256,uint256,bool)": "b50b506a",
        "zapFromBase(address,uint256,uint256,uint256)": "72fe6789",
        "zapFromQuote(address,uint256,uint256,uint256)": "8436f16a"
    },
    "gasEstimates": {
        "creation": {
            "codeDepositCost": "2106600",
            "executionCost": "2243",
            "totalCost": "2108843"
        },
        "external": {
            "calc(address,address)": "infinite",
            "calcMaxBaseForDeposit(address,uint256)": "infinite",
            "calcMaxDepositAmount(address,uint256,uint256)": "infinite",
            "calcMaxQuoteForDeposit(address,uint256)": "infinite",
            "calcSwapAmountForZap(address,uint256,bool)": "infinite",
            "calcSwapAmountForZapFromBase(address,uint256)": "infinite",
            "calcSwapAmountForZapFromQuote(address,uint256)": "infinite",
            "deposit2(address,uint256)": "infinite",
            "zap(address,uint256,uint256,uint256,bool)": "infinite",
            "zapFromBase(address,uint256,uint256,uint256)": "infinite",
            "zapFromQuote(address,uint256,uint256,uint256)": "infinite"
        },
        "internal": {
            "_calcBaseSwapAmount(uint256,struct Zap.ZapData memory)": "infinite",
            "_calcDepositAmount(address,address)": "infinite",
            "_calcMaxDepositAmount(address,struct Zap.DepositData memory)": "infinite",
            "_calcQuoteSwapAmount(uint256,struct Zap.ZapData memory)": "infinite",
            "_getCurveRatioAndBaseDecimals(address)": "infinite",
            "_getDepositAmountsData(address,struct Zap.DepositData memory)": "infinite",
            "_ratio(uint256,uint256)": "infinite"
        }
    }
}